:020000040000FA
:020000000928CD
:040002000034003492
:100010003E2C8801870183160313880187010E3067
:100020009F0005148312031341309F001F152010F9
:100030001F15383088000710871007158316031323
:10004000803081008312031381010B110B1D2628C0
:100050000711063088000710871007158316031351
:10006000803081008312031381010B110B1D362890
:1000700007110C308800071087100715831603132B
:10008000803081008312031381010B110B1D462860
:100090000711833088000710871007158316031394
:1000A000803081008312031381010B110B1D562830
:1000B000071157308800071487100715831603139C
:1000C000803081008312031381010B110B1D662800
:1000D000071145308800071487100715831603138E
:1000E000803081008312031381010B110B1D7628D0
:1000F00007114C3088000714871007158316031367
:10010000803081008312031381010B110B1D86289F
:10011000071143308800071487100715831603134F
:10012000803081008312031381010B110B1D96286F
:1001300007114F3088000714871007158316031323
:10014000803081008312031381010B110B1DA6283F
:1001500007114D3088000714871007158316031305
:10016000803081008312031381010B110B1DB6280F
:1001700007114530880007148710071583160313ED
:10018000803081008312031381010B110B1DC628DF
:100190000711831603138730810083120313810133
:1001A0000B110B1DD12864001F1D3E2C20102108AF
:1001B000023C0319E82821082A3C0319A729210831
:1001C0007F3C0319852A2108F33C0319422BD328CD
:1001D000013088000710871007158316031380303D
:1001E00081008312031381010B110B1DF5280711E8
:1001F000803088000710871007158316031380309E
:1002000081008312031381010B110B1D05290711B6
:1002100087010716871607174C30880007148710C8
:1002200007158316031380308100831203138101A5
:100230000B110B1D192907114F3088000714871067
:100240000715831603138030810083120313810185
:100250000B110B1D2929071157308800071487102F
:100260000715831603138030810083120313810165
:100270000B110B1D39290711203088000714871036
:100280000715831603138030810083120313810145
:100290000B110B1D492907114C30880007148710DA
:1002A0000715831603138030810083120313810125
:1002B0000B110B1D592907114930880007148710AD
:1002C0000715831603138030810083120313810105
:1002D0000B110B1D6929071147308800071487107F
:1002E00007158316031380308100831203138101E5
:1002F0000B110B1D7929071148308800071487104E
:1003000007158316031380308100831203138101C4
:100310000B110B1D89290711543088000714871011
:1003200007158316031380308100831203138101A4
:100330000B110B1D992907118316031387308100B8
:100340008312031381010B110B1DA429D328013043
:10035000880007108710071583160313803081006B
:100360008312031381010B110B1DB429071187019F
:10037000871607174E308800071487100715831655
:100380000313803081008312031381010B110B1DB5
:10039000C72907114F3088000714871007158316E7
:1003A0000313803081008312031381010B110B1D95
:1003B000D7290711523088000714871007158316B4
:1003C0000313803081008312031381010B110B1D75
:1003D000E72907114D308800071487100715831689
:1003E0000313803081008312031381010B110B1D55
:1003F000F729071141308800071487100715831665
:100400000313803081008312031381010B110B1D34
:10041000072A07114C308800071487100715831628
:100420000313803081008312031381010B110B1D14
:10043000172A071120308800071487100715831624
:100440000313803081008312031381010B110B1DF4
:10045000272A07114C3088000714871007158316C8
:100460000313803081008312031381010B110B1DD4
:10047000372A07114930880007148710071583169B
:100480000313803081008312031381010B110B1DB4
:10049000472A07114730880007148710071583166D
:1004A0000313803081008312031381010B110B1D94
:1004B000572A07114830880007148710071583163C
:1004C0000313803081008312031381010B110B1D74
:1004D000672A071154308800071487100715831600
:1004E0000313803081008312031381010B110B1D54
:1004F000772A0711831603138730810083120313B1
:1005000081010B110B1D822AD328013088000710AE
:10051000871007158316031380308100831203139D
:1005200081010B110B1D922A071187010717483013
:100530008800071487100715831603138030810085
:100540008312031381010B110B1DA42A07114930DB
:100550008800071487100715831603138030810065
:100560008312031381010B110B1DB42A07114730AD
:100570008800071487100715831603138030810045
:100580008312031381010B110B1DC42A071148307C
:100590008800071487100715831603138030810025
:1005A0008312031381010B110B1DD42A0711203074
:1005B0008800071487100715831603138030810005
:1005C0008312031381010B110B1DE42A07114C3018
:1005D00088000714871007158316031380308100E5
:1005E0008312031381010B110B1DF42A07114930EB
:1005F00088000714871007158316031380308100C5
:100600008312031381010B110B1D042B07114730BB
:1006100088000714871007158316031380308100A4
:100620008312031381010B110B1D142B071148308A
:100630008800071487100715831603138030810084
:100640008312031381010B110B1D242B071154304E
:100650008800071487100715831603138030810064
:100660008312031381010B110B1D342B0711831609
:100670000313873081008312031381010B110B1DBB
:100680003F2BD328013088000710871007158316E9
:100690000313803081008312031381010B110B1DA2
:1006A0004F2B071187015430880007148710071556
:1006B00083160313803081008312031381010B1111
:1006C0000B1D602B07114F3088000714871007158A
:1006D00083160313803081008312031381010B11F1
:1006E0000B1D702B07114F3088000714871007155A
:1006F00083160313803081008312031381010B11D1
:100700000B1D802B07112030880007148710071558
:1007100083160313803081008312031381010B11B0
:100720000B1D902B07114830880007148710071500
:1007300083160313803081008312031381010B1190
:100740000B1DA02B071149308800071487100715CF
:1007500083160313803081008312031381010B1170
:100760000B1DB02B071147308800071487100715A1
:1007700083160313803081008312031381010B1150
:100780000B1DC02B07114830880007148710071570
:1007900083160313803081008312031381010B1130
:1007A0000B1DD02B07112030880007148710071568
:1007B00083160313803081008312031381010B1110
:1007C0000B1DE02B07114C3088000714871007150C
:1007D00083160313803081008312031381010B11F0
:1007E0000B1DF02B071149308800071487100715DF
:1007F00083160313803081008312031381010B11D0
:100800000B1D002C071147308800071487100715AF
:1008100083160313803081008312031381010B11AF
:100820000B1D102C0711483088000714871007157E
:1008300083160313803081008312031381010B118F
:100840000B1D202C07115430880007148710071542
:1008500083160313803081008312031381010B116F
:100860000B1D302C07118316031387308100831270
:10087000031381010B110B1D3B2CD3281E08A10073
:0C088000210888000C1320141F15D32839
:00000001FF
